{
  "contractName": "BStore",
  "abi": [
    {
      "constant": true,
      "inputs": [
        {
          "name": "",
          "type": "uint256"
        }
      ],
      "name": "books",
      "outputs": [
        {
          "name": "id",
          "type": "uint256"
        }
      ],
      "payable": false,
      "stateMutability": "view",
      "type": "function"
    },
    {
      "constant": true,
      "inputs": [],
      "name": "bookCount",
      "outputs": [
        {
          "name": "",
          "type": "uint256"
        }
      ],
      "payable": false,
      "stateMutability": "view",
      "type": "function"
    },
    {
      "inputs": [],
      "payable": false,
      "stateMutability": "nonpayable",
      "type": "constructor"
    },
    {
      "constant": false,
      "inputs": [],
      "name": "createBook",
      "outputs": [],
      "payable": false,
      "stateMutability": "nonpayable",
      "type": "function"
    }
  ],
  "bytecode": "0x608060405234801561001057600080fd5b5061001f61002460201b60201c565b610069565b60008081548092919060010191905055506040518060200160405280600054815250600160008054815260200190815260200160002060008201518160000155905050565b610145806100786000396000f3fe608060405234801561001057600080fd5b50600436106100415760003560e01c806368744046146100465780637bf3494014610088578063b905ad7814610092575b600080fd5b6100726004803603602081101561005c57600080fd5b81019080803590602001909291905050506100b0565b6040518082815260200191505060405180910390f35b6100906100ce565b005b61009a610113565b6040518082815260200191505060405180910390f35b60016020528060005260406000206000915090508060000154905081565b60008081548092919060010191905055506040518060200160405280600054815250600160008054815260200190815260200160002060008201518160000155905050565b6000548156fea165627a7a72305820864c98e979859073e45f9fafd6def1fc392847eb389034a8c7f20bdeb6d83ebe0029",
  "source": "pragma solidity >=0.5.0 <0.7.0;\r\n\r\ncontract BStore {\r\n    uint public bookCount;\r\n    struct Book {\r\n        uint id;\r\n        // address publisher;\r\n        // uint price;\r\n        // string title;\r\n        // bytes cover;\r\n    }\r\n\r\n    mapping(uint => Book) public books;\r\n\r\n    constructor () public {\r\n        createBook();\r\n    }\r\n    // address _publisher, uint _price, string memory _title, bytes memory _cover\r\n    // , _publisher, _price, _title, _cover\r\n    function createBook() public{\r\n        bookCount++;\r\n        books[bookCount] = Book(bookCount);\r\n    }\r\n}",
  "sourcePath": "C:/Users/niraj kamdar/Desktop/hackout_backend/contracts/BStore.sol",
  "compiler": {
    "name": "solc",
    "version": "0.5.8+commit.23d335f2.Emscripten.clang"
  },
  "schemaVersion": "3.0.16",
  "updatedAt": "2019-10-04T22:52:13.943Z",
  "devdoc": {
    "methods": {}
  },
  "userdoc": {
    "methods": {}
  }
}